:04000000341D3FFC70
:0400010034150000B2
:0400020034160000B0
:0400030034140000B1
:04000400341A0005A5
:0400050034110000B2
:0400060034120000B0
:0400070034130000AE
:040008000C000012D6
:04000900FFFFFFFFF7
:04000A00C0880000AA
:04000B001500FFFEDF
:04000C0025080001C2
:04000D00E088000087
:04000E001100FFFBE3
:04000F0003E0000802
:04001000AC800000C0
:0400110003E0000800
:0400120027BDFFFC0B
:04001300AFBF00007B
:04001400001A202589
:040015000C0000914A
:040016000002D025EF
:04001700029AA02188
:0400180026B5000108
:0400190026D60001E6
:04001A0024130001AA
:04001B0034080001A4
:04001C001268000264
:04001D00001AE025C0
:04001E00001AE825B7
:04001F003404012480
:040020000C00000AC6
:0400210027BDFFFCFC
:04002200AFBA000071
:04002300340401247C
:040024000C000010BC
:040025003408000A91
:0400260016C80019DF
:040027003404012478
:040028000C00000ABE
:040029008FBD000087
:04002A0027BD0004EA
:04002B008FBD000085
:04002C0027BD0004E8
:04002D008FBD000083
:04002E0027BD0004E6
:04002F008FBD000081
:0400300027BD0004E4
:040031008FBD00007F
:0400320027BD0004E2
:040033008FBD00007D
:0400340027BD0004E0
:040035008FBD00007B
:0400360027BD0004DE
:040037008FBD000079
:0400380027BD0004DC
:040039008FBD000077
:04003A0027BD0004DA
:04003B008FBD000075
:04003C0027BD0004D8
:04003D003404012462
:04003E000C000010A2
:04003F000000B025E8
:04004000340801007F
:0400410016A8FFD22C
:040042000014202561
:04004300340501007F
:040044000C00009F0D
:040045000002802510
:040046008FBF000068
:0400470027BD0004CD
:0400480003E00008C9
:0400490000000000B3
:040080000C000082EE
:04008100FFFFFFFF7F
:04008200340401241D
:040083000C00000A63
:040084008FB7000032
:0400850027BD00048F
:040086003404012419
:040087000C00001059
:04008800001C202513
:04008900001728250F
:04008A000C0000D294
:04008B000002E0256A
:04008C00001D20250E
:04008D00001728250B
:04008E000C0000C1A1
:04008F000002E8255E
:0400900003E0000881
:040091003C0904C161
:0400920035291DB738
:0400930000005025F4
:04009400340B002009
:04009500014B602A91
:0400960011800006CF
:04009700008067C2BC
:040098000080204084
:0400990011800001D1
:04009A000089202693
:04009B00254A0001F1
:04009C0008000095C3
:04009D0000801025AA
:04009E0003E0000873
:04009F0027BDFFFC7E
:0400A000AFBF0000EE
:0400A10027BDFFFC7C
:0400A200AFA4000007
:0400A30027BDFFFC7A
:0400A400AFA5000004
:0400A5000000102522
:0400A6000004182515
:0400A700100500122E
:0400A80000A0402A4A
:0400A9001500000D31
:0400AA000080402A68
:0400AB001500000537
:0400AC000065402A81
:0400AD001500000C2E
:0400AE0024420001E7
:0400AF0000651823AD
:0400B000080000AC98
:0400B1000004202304
:0400B2000C00009F9F
:0400B3000002102314
:0400B40010600005D3
:0400B5002442FFFFE3
:0400B600080000BA84
:0400B70000052023FD
:0400B8000C00009F99
:0400B900000210230E
:0400BA008FA500000E
:0400BB0027BD000459
:0400BC008FA400000D
:0400BD0027BD000457
:0400BE008FBF0000F0
:0400BF0027BD000455
:0400C00003E0000851
:0400C10027BDFFFC5C
:0400C200AFBF0000CC
:0400C30027BDFFFC5A
:0400C400AFA40000E5
:0400C50027BDFFFC58
:0400C600AFA50000E2
:0400C70000041025FC
:0400C8000085402A45
:0400C9001100000121
:0400CA0000051025F8
:0400CB008FA50000FD
:0400CC0027BD000448
:0400CD008FA40000FC
:0400CE0027BD000446
:0400CF008FBF0000DF
:0400D00027BD000444
:0400D10003E0000840
:0400D20027BDFFFC4B
:0400D300AFBF0000BB
:0400D40027BDFFFC49
:0400D500AFA40000D4
:0400D60027BDFFFC47
:0400D700AFA50000D1
:0400D80000041025EB
:0400D90000A4402A15
:0400DA001100000110
:0400DB0000051025E7
:0400DC008FA50000EC
:0400DD0027BD000437
:0400DE008FA40000EB
:0400DF0027BD000435
:0400E0008FBF0000CE
:0400E10027BD000433
:0400E20003E000082F
:00000001FF
